{
	"data": {
		"bytecode": {
			"linkReferences": {},
			"object": "6080604052348015600e575f80fd5b506103478061001c5f395ff3fe608060405234801561000f575f80fd5b5060043610610055575f3560e01c80636d4ce63c14610059578063771602f714610077578063a391c15b14610093578063b67d77c5146100af578063c8a4ac9c146100cb575b5f80fd5b6100616100e7565b60405161006e919061015b565b60405180910390f35b610091600480360381019061008c91906101a2565b6100ef565b005b6100ad60048036038101906100a891906101a2565b610104565b005b6100c960048036038101906100c491906101a2565b610119565b005b6100e560048036038101906100e091906101a2565b61012e565b005b5f8054905090565b80826100fb919061020d565b5f819055505050565b8082610110919061026d565b5f819055505050565b8082610125919061029d565b5f819055505050565b808261013a91906102d0565b5f819055505050565b5f819050919050565b61015581610143565b82525050565b5f60208201905061016e5f83018461014c565b92915050565b5f80fd5b61018181610143565b811461018b575f80fd5b50565b5f8135905061019c81610178565b92915050565b5f80604083850312156101b8576101b7610174565b5b5f6101c58582860161018e565b92505060206101d68582860161018e565b9150509250929050565b7f4e487b71000000000000000000000000000000000000000000000000000000005f52601160045260245ffd5b5f61021782610143565b915061022283610143565b925082820190508082111561023a576102396101e0565b5b92915050565b7f4e487b71000000000000000000000000000000000000000000000000000000005f52601260045260245ffd5b5f61027782610143565b915061028283610143565b92508261029257610291610240565b5b828204905092915050565b5f6102a782610143565b91506102b283610143565b92508282039050818111156102ca576102c96101e0565b5b92915050565b5f6102da82610143565b91506102e583610143565b92508282026102f381610143565b9150828204841483151761030a576103096101e0565b5b509291505056fea2646970667358221220fd945f5312542183df10455f6adf28e38c3e5c9bd5571bf5fdda639a068780e964736f6c634300081a0033",
			"opcodes": "PUSH1 0x80 PUSH1 0x40 MSTORE CALLVALUE DUP1 ISZERO PUSH1 0xE JUMPI PUSH0 DUP1 REVERT JUMPDEST POP PUSH2 0x347 DUP1 PUSH2 0x1C PUSH0 CODECOPY PUSH0 RETURN INVALID PUSH1 0x80 PUSH1 0x40 MSTORE CALLVALUE DUP1 ISZERO PUSH2 0xF JUMPI PUSH0 DUP1 REVERT JUMPDEST POP PUSH1 0x4 CALLDATASIZE LT PUSH2 0x55 JUMPI PUSH0 CALLDATALOAD PUSH1 0xE0 SHR DUP1 PUSH4 0x6D4CE63C EQ PUSH2 0x59 JUMPI DUP1 PUSH4 0x771602F7 EQ PUSH2 0x77 JUMPI DUP1 PUSH4 0xA391C15B EQ PUSH2 0x93 JUMPI DUP1 PUSH4 0xB67D77C5 EQ PUSH2 0xAF JUMPI DUP1 PUSH4 0xC8A4AC9C EQ PUSH2 0xCB JUMPI JUMPDEST PUSH0 DUP1 REVERT JUMPDEST PUSH2 0x61 PUSH2 0xE7 JUMP JUMPDEST PUSH1 0x40 MLOAD PUSH2 0x6E SWAP2 SWAP1 PUSH2 0x15B JUMP JUMPDEST PUSH1 0x40 MLOAD DUP1 SWAP2 SUB SWAP1 RETURN JUMPDEST PUSH2 0x91 PUSH1 0x4 DUP1 CALLDATASIZE SUB DUP2 ADD SWAP1 PUSH2 0x8C SWAP2 SWAP1 PUSH2 0x1A2 JUMP JUMPDEST PUSH2 0xEF JUMP JUMPDEST STOP JUMPDEST PUSH2 0xAD PUSH1 0x4 DUP1 CALLDATASIZE SUB DUP2 ADD SWAP1 PUSH2 0xA8 SWAP2 SWAP1 PUSH2 0x1A2 JUMP JUMPDEST PUSH2 0x104 JUMP JUMPDEST STOP JUMPDEST PUSH2 0xC9 PUSH1 0x4 DUP1 CALLDATASIZE SUB DUP2 ADD SWAP1 PUSH2 0xC4 SWAP2 SWAP1 PUSH2 0x1A2 JUMP JUMPDEST PUSH2 0x119 JUMP JUMPDEST STOP JUMPDEST PUSH2 0xE5 PUSH1 0x4 DUP1 CALLDATASIZE SUB DUP2 ADD SWAP1 PUSH2 0xE0 SWAP2 SWAP1 PUSH2 0x1A2 JUMP JUMPDEST PUSH2 0x12E JUMP JUMPDEST STOP JUMPDEST PUSH0 DUP1 SLOAD SWAP1 POP SWAP1 JUMP JUMPDEST DUP1 DUP3 PUSH2 0xFB SWAP2 SWAP1 PUSH2 0x20D JUMP JUMPDEST PUSH0 DUP2 SWAP1 SSTORE POP POP POP JUMP JUMPDEST DUP1 DUP3 PUSH2 0x110 SWAP2 SWAP1 PUSH2 0x26D JUMP JUMPDEST PUSH0 DUP2 SWAP1 SSTORE POP POP POP JUMP JUMPDEST DUP1 DUP3 PUSH2 0x125 SWAP2 SWAP1 PUSH2 0x29D JUMP JUMPDEST PUSH0 DUP2 SWAP1 SSTORE POP POP POP JUMP JUMPDEST DUP1 DUP3 PUSH2 0x13A SWAP2 SWAP1 PUSH2 0x2D0 JUMP JUMPDEST PUSH0 DUP2 SWAP1 SSTORE POP POP POP JUMP JUMPDEST PUSH0 DUP2 SWAP1 POP SWAP2 SWAP1 POP JUMP JUMPDEST PUSH2 0x155 DUP2 PUSH2 0x143 JUMP JUMPDEST DUP3 MSTORE POP POP JUMP JUMPDEST PUSH0 PUSH1 0x20 DUP3 ADD SWAP1 POP PUSH2 0x16E PUSH0 DUP4 ADD DUP5 PUSH2 0x14C JUMP JUMPDEST SWAP3 SWAP2 POP POP JUMP JUMPDEST PUSH0 DUP1 REVERT JUMPDEST PUSH2 0x181 DUP2 PUSH2 0x143 JUMP JUMPDEST DUP2 EQ PUSH2 0x18B JUMPI PUSH0 DUP1 REVERT JUMPDEST POP JUMP JUMPDEST PUSH0 DUP2 CALLDATALOAD SWAP1 POP PUSH2 0x19C DUP2 PUSH2 0x178 JUMP JUMPDEST SWAP3 SWAP2 POP POP JUMP JUMPDEST PUSH0 DUP1 PUSH1 0x40 DUP4 DUP6 SUB SLT ISZERO PUSH2 0x1B8 JUMPI PUSH2 0x1B7 PUSH2 0x174 JUMP JUMPDEST JUMPDEST PUSH0 PUSH2 0x1C5 DUP6 DUP3 DUP7 ADD PUSH2 0x18E JUMP JUMPDEST SWAP3 POP POP PUSH1 0x20 PUSH2 0x1D6 DUP6 DUP3 DUP7 ADD PUSH2 0x18E JUMP JUMPDEST SWAP2 POP POP SWAP3 POP SWAP3 SWAP1 POP JUMP JUMPDEST PUSH32 0x4E487B7100000000000000000000000000000000000000000000000000000000 PUSH0 MSTORE PUSH1 0x11 PUSH1 0x4 MSTORE PUSH1 0x24 PUSH0 REVERT JUMPDEST PUSH0 PUSH2 0x217 DUP3 PUSH2 0x143 JUMP JUMPDEST SWAP2 POP PUSH2 0x222 DUP4 PUSH2 0x143 JUMP JUMPDEST SWAP3 POP DUP3 DUP3 ADD SWAP1 POP DUP1 DUP3 GT ISZERO PUSH2 0x23A JUMPI PUSH2 0x239 PUSH2 0x1E0 JUMP JUMPDEST JUMPDEST SWAP3 SWAP2 POP POP JUMP JUMPDEST PUSH32 0x4E487B7100000000000000000000000000000000000000000000000000000000 PUSH0 MSTORE PUSH1 0x12 PUSH1 0x4 MSTORE PUSH1 0x24 PUSH0 REVERT JUMPDEST PUSH0 PUSH2 0x277 DUP3 PUSH2 0x143 JUMP JUMPDEST SWAP2 POP PUSH2 0x282 DUP4 PUSH2 0x143 JUMP JUMPDEST SWAP3 POP DUP3 PUSH2 0x292 JUMPI PUSH2 0x291 PUSH2 0x240 JUMP JUMPDEST JUMPDEST DUP3 DUP3 DIV SWAP1 POP SWAP3 SWAP2 POP POP JUMP JUMPDEST PUSH0 PUSH2 0x2A7 DUP3 PUSH2 0x143 JUMP JUMPDEST SWAP2 POP PUSH2 0x2B2 DUP4 PUSH2 0x143 JUMP JUMPDEST SWAP3 POP DUP3 DUP3 SUB SWAP1 POP DUP2 DUP2 GT ISZERO PUSH2 0x2CA JUMPI PUSH2 0x2C9 PUSH2 0x1E0 JUMP JUMPDEST JUMPDEST SWAP3 SWAP2 POP POP JUMP JUMPDEST PUSH0 PUSH2 0x2DA DUP3 PUSH2 0x143 JUMP JUMPDEST SWAP2 POP PUSH2 0x2E5 DUP4 PUSH2 0x143 JUMP JUMPDEST SWAP3 POP DUP3 DUP3 MUL PUSH2 0x2F3 DUP2 PUSH2 0x143 JUMP JUMPDEST SWAP2 POP DUP3 DUP3 DIV DUP5 EQ DUP4 ISZERO OR PUSH2 0x30A JUMPI PUSH2 0x309 PUSH2 0x1E0 JUMP JUMPDEST JUMPDEST POP SWAP3 SWAP2 POP POP JUMP INVALID LOG2 PUSH5 0x6970667358 0x22 SLT KECCAK256 REVERT SWAP5 PUSH0 MSTORE8 SLT SLOAD 0x21 DUP4 0xDF LT GASLIMIT PUSH0 PUSH11 0xDF28E38C3E5C9BD5571BF5 REVERT 0xDA PUSH4 0x9A068780 0xE9 PUSH5 0x736F6C6343 STOP ADDMOD BYTE STOP CALLER "
		},
		"gasEstimates": {
			"creation": {
				"codeDepositCost": "167800",
				"executionCost": "212",
				"totalCost": "168012"
			},
			"external": {
				"add(uint256,uint256)": "infinite",
				"div(uint256,uint256)": "infinite",
				"get()": "2410",
				"mul(uint256,uint256)": "infinite",
				"sub(uint256,uint256)": "infinite"
			}
		},
		"methodIdentifiers": {
			"add(uint256,uint256)": "771602f7",
			"div(uint256,uint256)": "a391c15b",
			"get()": "6d4ce63c",
			"mul(uint256,uint256)": "c8a4ac9c",
			"sub(uint256,uint256)": "b67d77c5"
		}
	},
	"abi": [
		{
			"inputs": [
				{
					"internalType": "uint256",
					"name": "a",
					"type": "uint256"
				},
				{
					"internalType": "uint256",
					"name": "b",
					"type": "uint256"
				}
			],
			"name": "add",
			"outputs": [],
			"stateMutability": "nonpayable",
			"type": "function"
		},
		{
			"inputs": [
				{
					"internalType": "uint256",
					"name": "a",
					"type": "uint256"
				},
				{
					"internalType": "uint256",
					"name": "b",
					"type": "uint256"
				}
			],
			"name": "div",
			"outputs": [],
			"stateMutability": "nonpayable",
			"type": "function"
		},
		{
			"inputs": [],
			"name": "get",
			"outputs": [
				{
					"internalType": "uint256",
					"name": "",
					"type": "uint256"
				}
			],
			"stateMutability": "view",
			"type": "function"
		},
		{
			"inputs": [
				{
					"internalType": "uint256",
					"name": "a",
					"type": "uint256"
				},
				{
					"internalType": "uint256",
					"name": "b",
					"type": "uint256"
				}
			],
			"name": "mul",
			"outputs": [],
			"stateMutability": "nonpayable",
			"type": "function"
		},
		{
			"inputs": [
				{
					"internalType": "uint256",
					"name": "a",
					"type": "uint256"
				},
				{
					"internalType": "uint256",
					"name": "b",
					"type": "uint256"
				}
			],
			"name": "sub",
			"outputs": [],
			"stateMutability": "nonpayable",
			"type": "function"
		}
	]
}